:020000041000EA
:1000000000B5324B212058609868022188439860DF
:10001000D860186158612E4B002199600221596106
:100020000121F02299502B49196001219960352056
:1000300000F044F80222904214D00621196600F024
:1000400034F8196E01211966002018661A6600F04E
:100050002CF8196E196E196E052000F02FF8012189
:100060000842F9D1002199601B49196000215960AB
:100070001A491B48016001219960EB211966A021F2
:10008000196600F012F800219960164914480160C1
:100090000121996001BC002800D000471248134993
:1000A000086003C880F30888084703B5996A0420EC
:1000B0000142FBD001200142F8D103BD02B5186610
:1000C0001866FFF7F2FF186E186E02BD00000240BE
:1000D000000000180000070000035F00212200005C
:1000E000F4000018222000A00001001008ED00E03C
:1000F00000000000000000000000000074B24E7A12
:1001000000200420F7010010C3010010C5010010F9
:10011000C1010010C1010010C1010010C101001097
:10012000C1010010C1010010C1010010C701001081
:10013000C1010010C1010010C9010010CB01001065
:10014000CD010010CD010010CD010010CD01001037
:10015000CD010010CD010010CD010010CD01001027
:10016000CD010010CD010010CD010010CD01001017
:10017000CD010010CD010010CD010010CD01001007
:10018000CD010010CD010010CD010010CD010010F7
:10019000CD010010CD010010CD010010CD010010E7
:1001A000CD010010CD010010CD010010CD010010D7
:1001B000CD010010CD010010CD010010CD010010C7
:1001C00000BE00BE00BE00BE00BE00BEEFF3058054
:1001D000103800BEF2EB88715429051078290510FB
:1001E0003802001090A31AE71E481F49086006C88D
:1001F00081F3088810471D480068002801D019487D
:10020000F3E70DA40ECC002902D000F012F8F9E7B4
:100210001749184A002000E001C19142FCD116495B
:100220008847164988471649884700BEFDE701C937
:1002300001C29A42FBD3704778290510E0000020E4
:10024000E817002080400510000004200000042072
:100250008040051000100420001004200000000061
:10026000704700000000000008ED00E0000000D032
:10027000E817002090E4002095520010990B001020
:100280008D520010F8B5C04606480749091A8B1070
:10029000C90FC91810B5491003D0044B002B00D06A
:1002A000984710BDE8170020E81700200000000064
:1002B000054B10B5002B03D00449054800E000BFF2
:1002C000FFF7E2FF10BDC04600000000E8D20020AA
:1002D000C48701100122024B00201A707047C046EB
:1002E00075E400200122024B00201A707047C046BE
:1002F00077E400200122024B00201A707047C046AC
:1003000076E4002030B52449244C0968244BA544E8
:100310001B680291234944AC0968234A019123498F
:1003200005000968200000918021490004F056FF73
:100330001F4B0100180005F0B7F921001D4805F01A
:10034000B3F9200017F044FC802103001A4A490049
:10035000009404A804F042FF04A817F039FC01231C
:1003600082B204A928000DF0B9FA041E0ED12800AB
:100370000EF0D2F8280011490AF02EFE104805F0C0
:100380000BF9200085239B009D4430BD21000D48C2
:1003900005F08AF9F5E7C04628260020ECFDFFFFAE
:1003A000182600201C260020C887011020260020C7
:1003B00034880110408801104C880110F5030010AA
:1003C000DC880110C488011070B5084814000D00C5
:1003D00005F0E2F8002C03D12800FFF793FF70BD71
:1003E0002100034805F060F92000F8E7F4880110C7
:1003F0000489011070B50C4814000D0005F0CCF80C
:10040000002C09D062686189084805F04DF9200088
:1004100009F012FE002070BD28000BF0E3F904483B
:1004200005F0BAF8F6E7C0461C8901104C890110A6
:100430002C890110F0B585B004000E00170002F001
:10044000F5F8FA22050000232000E117920003F0DE
:100450005FFA0B000021020002972800019100962C
:1004600002F0DEFA05B0F0BDF0B5C6461C0000B5DE
:10047000304B0E00C118090D063186B00500C9B217
:100480002000170001F0B0F9012331002200009391
:10049000280007F0F3FE80235B020293FB1CFA01A5
:1004A0001B031343244AA40213400393F823DB01E4
:1004B0001C4080239B0523430593204B0520049378
:1004C00002F09EFC03F062FA1D49041C0C9803F034
:1004D00056FA011C201C03F03EFAEC21890503F0BA
:1004E00037FA804603F07AFA84B20023002C0ED04B
:1004F000200003F04BFA011C404603F026FA872146
:10050000C90503F03CFA03F069FAC3B21B022404E4
:100510003A001C43310002AB2800029407F008FFA8
:100520000123B3402A6813432B6006B080BCB84651
:10053000F0BDC0460000E0AFFFFFFF9F00000E507F
:1005400000002041F0B5194E83B005001849300075
:1005500007F0BCFD174F0400002130003E6007F09B
:1005600099FD154B01001860144B22003868009368
:100570002B00FFF779FF00224821114B5A5200212E
:100580001A605A609A60DA601A615A619A61DA6197
:100590001A625A629A62DA621A635A639A63DA6377
:1005A0001A645A644A32995403B0F0BD00002050D6
:1005B00000AA0110E4D2002014E4002000504349B6
:1005C00004390020104B70B51A68104B10481C6895
:1005D00001232100060010318B40A4004B36141972
:1005E000057851680B42FCD12561457851680B4272
:1005F000FCD12561857851680B42FCD1033025611F
:100600008642EDD170BDC046E4D2002014E4002043
:100610000439002010B5164C2368052B18D0154856
:1006200004F0BAFF2168144805F03EF8042123685D
:10063000C91A4A0052180021104B98184170D15421
:100640008170FFF7BFFF012023680133236010BDD5
:100650000B4804F0A1FF00220A4B00201A700A4A3E
:100660001368013313600122084B1A70EFE7C0468C
:1006700024260020A8890110B08901100439002027
:100680009C89011086E400202826002085E40020B3
:1006900070B5BA4B04001B6886B0042B4AD8B84A20
:1006A0009B00D3589F46B74804F0FEFFB64D28681C
:1006B000042800D94AE1B54BD02280211206490115
:1006C0009161421C2A6019250026A81A41000918C8
:1006D00058188570AE4D5E544670AE49280004F03F
:1006E00067FD200000F0DCFFAB4B20000A2219213F
:1006F0000093012300F0DCFF0223142219212000C3
:10070000009500F0D5FF200001F006F8FFF75AFF32
:10071000FA20800002F0F8F8A04C200002F014FA51
:1007200001F084FF9E4B9F4A0093029400230196A0
:1007300002F076F9FA20400002F0E6F8642002F0B8
:10074000E3F806B070BD984804F026FF200000F0E2
:10075000A7FF964B0A22242120000093012300F0DA
:10076000A7FF934B1422242120000093012300F0C3
:100770009FFF904B1E22192120000093012300F0BF
:1007800097FF8D4B2822192120000093012300F0B0
:100790008FFF200000F0C0FFFA20800002F0B4F8C4
:1007A000864B1A78002AC5D101321A70C2E700F0D0
:1007B00077FF834B1E221E2120000093012300F0AF
:1007C00077FF200000F0A8FFFA20C00002F09CF89C
:1007D0007C4B7D48059304F0DFFE0AF03BFE041ECF
:1007E00000D1C7E0794804F0D7FE05A92000784B76
:1007F000784A0AF041F8011E9CD0774804F054FF73
:1008000020000AF0EFFF95E7744804F0C5FE744835
:100810000168042900D98EE05C4B4A1C0F31D025B9
:1008200080262D06B601AE6119250026026048001B
:10083000411858184570564D5E5486705549280029
:1008400004F0B6FC200000F02BFF664B2000009364
:100850000A220123192100F02BFF0223142219215F
:100860002000009500F024FF200000F055FFFFF766
:10087000A9FEFA20800002F047F85B4C200002F04D
:1008800063F901F0D3FE594B594A009302940023B7
:10089000019602F0C5F84DE7564804F07DFE564932
:1008A0000B68042B61D900220020384BDA831A62CE
:1008B0005A629A622C3298540E202B3AD025802608
:1008C0002D063601AE61192500260A60410009187F
:1008D0005D542F4D581846702E498670280004F03C
:1008E00067FC200000F0DCFE444B200000930A224D
:1008F00001231E2100F0DCFE022314221921200016
:10090000009500F0D5FE200000F006FFFFF75AFE2C
:10091000FA20800001F0F8FF394C200002F014F9B1
:1009200001F084FE374B384A00930294002301966D
:1009300002F076F8FEE600222D21144B5A54DA8597
:100940001A635A639A631E39013268E7052102F07F
:100950006DFC00220800482100260C4B5A5202313F
:100960005E54DA631A645A64A6E60E205A1CC01A52
:10097000064BA3E7254804F00FFEDBE61CD300205E
:10098000ECA90110C88901101826002004390020A4
:10099000BC250020D0890110DC890110C01A00207C
:1009A000D5020010C0E1E4001C8A0110248A011065
:1009B0002C8A0110348A0110408A011089E4002039
:1009C000508A0110C0A80F0E5C89011078890110AF
:1009D000C9030010B80B000084890110EC890110D4
:1009E00020260020F4890110F01A0020E5020010F2
:1009F00040787D01088A01101C260020108A011011
:100A0000D81A0020F50200100087930364890110B2
:100A100070B50400042100F0E7FE63081F2C32D8F3
:100A200007251D40052002F0EBF9C821C90202F09C
:100A3000FDFB02F0ABFFF421890502F089FF832161
:100A4000C90502F09CFF02F0C9FFAA005219104B21
:100A50009200D11800230B608B60CB600D4B0B61B3
:100A6000012348600B602340013BD8030A4B0B492C
:100A70009C4651180B68C00B60441840084B9C46BC
:100A80006244106070BD03251D400835CAE7C046AA
:100A900000000540FF0F00000000FFFF0C000540B4
:100AA0000C10054030B583B00D00040000F0F8FDD7
:100AB000002D2CD12E4B0A2200930A210123200065
:100AC00000F0F6FD2B4B0093142201230A21200095
:100AD00000F0EEFD284B00931E2201230A21200086
:100AE00000F0E6FD254B0093282201230A21200077
:100AF00000F0DEFD224B32220A2120000093012368
:100B000000F0D6FD200000F007FE03B030BD1D4B05
:100B10000A2200930A210123200000F0C9FD012DC3
:100B200001D1194BCFE7134B142200930A21012363
:100B3000200000F0BDFD022D01D1144BCBE70E4B80
:100B40001E2200930A210123200000F0B1FD032D95
:100B500001D10F4BC7E7094B282200930A2101233B
:100B6000200000F0A5FD042DC4D10A4BC3E7C04608
:100B7000808A01108C8A0110988A0110A48A0110C1
:100B8000708A0110B88A0110C48A0110D08A01103D
:100B9000DC8A0110608A0110F0B5DE4657464E46E9
:100BA0004546E0B59DB004F0A7FC12F023FA0028FA
:100BB00000D0EBE3F24804F0EFFC12F0B7F9F14893
:100BC00004F0EAFCF049F148F14BF24A12F0BCF9AA
:100BD000002800D09CE2F04804F0DEFCEF4DF04C21
:100BE000F04BF14AF149E35CA25C615C645DF04862
:100BF000009404F059FDD026802436060C206401B0
:100C000000F0A6FE0D20746200F0A2FE80239B017E
:100C10000B20736200F09CFE802320271B0173626F
:100C2000052000F095FE002201210520B76200F0AA
:100C3000F5FD062000F08CFE40230022B362012166
:100C4000062000F0EBFD07F009FA1F211A2000F042
:100C5000CBFD002200211A2000F0E0FD00211A2027
:100C600000F062FED34BD4491B685C40E023DB01FB
:100C70001C40D24B1C60D24B1800984607F0BCF9C0
:100C800003210E2000F0B0FD03210F2000F0ACFD89
:100C9000002201210E2000F0C1FD012100220F20C1
:100CA00000F0BCFD0720FFF74DFC00234822C54C97
:100CB000A352002223606360A360E3602361636149
:100CC000A361E36123626362A362E36223636363FC
:100CD000A363E363236463644A33E254FFF772FC63
:100CE000152000F035FE80239B0315207362FFF76B
:100CF0008FFE4346B44D009340223C2380212800C0
:100D000000F02CFC002800D14CE373683B4200D17A
:100D10004DE3AE4AAE4B9146AE4AA24690462027DE
:100D20001C001593280000F0BBFC01230A221921A6
:100D30002800009400F0BCFC4B4614221621280029
:100D40000093012300F0B4FC434623221421280021
:100D50000093012300F0ACFC280000F0DDFC736878
:100D60001F42DFD15446280000F09AFC9A4B0A2219
:100D7000192128000093012300F09AFC280000F0BC
:100D8000CBFCFA20C00001F0BFFD280000F088FC79
:100D9000924B934E1F0031000F221800149304F061
:100DA00007FA904B0A22192128000093012300F032
:100DB0007FFC0223142219212800009700F078FC00
:100DC000280000F0A9FC884801F09EFD280000F0F2
:100DD00067FC31001922380004F0EAF9834B0A223B
:100DE000192128000093012300F062FC0223142241
:100DF00019212800009700F05BFC280000F08CFC13
:100E0000794801F081FD280000F04AFC31003C22C5
:100E1000380004F0CDF9764B0A22192128000093FE
:100E2000012300F045FC0223142219212800009719
:100E300000F03EFC280000F06FFC6B4801F064FD00
:100E4000280000F02DFC0F226A49380004F0B0F9A8
:100E5000694B0A22192128000093012300F028FC85
:100E60000223142219212800009700F021FC2800F9
:100E700000F052FC5C4801F047FDD02380221B06A5
:100E800052019A61802292019A61802212019A6134
:100E90005A4B5B4A19005B4809921993FFF7CAFA4B
:100EA000594B5A4A19005A480A921A93FFF7C2FA44
:100EB000584B594A190059481B930B92FFF7BAFA3D
:100EC000574B584E9946584B0F93584B0C93584BD1
:100ED0000D93584B0893584B0693584B1693584B09
:100EE0001793584B1893584B9846584B0493584BAC
:100EF0000593584B0793584B1093584B1193584BED
:100F00001293584B1393584B0E9331682800FFF7F8
:100F1000C9FD04228021554B49001A60254A1368F7
:100F20000B42FCD05368FA229BB29200934200D24B
:100F300046E12D4A934200D925E2D0231B065B6887
:100F40009B0602D42800FFF7A3FB4B461B78002B1F
:100F500000D067E1069B1B78002B00D0ADE1434633
:100F60001B78002B00D035E1049B1B78002B00D0B0
:100F7000FEE0059B1B78002B00D0D1E078E0C04656
:100F8000008B0110288B01104C8B01105C8B011021
:100F90001027000004004000A08B0110EB080000A7
:100FA0003C260020EA080000E9080000E8080000EC
:100FB000B88B011000C00440A086010000D004409E
:100FC000181200200439002000D30020DC8B01100F
:100FD000348A0110EC8B0110FC8B0110BC25002021
:100FE0000C8C0110148C0110B80B00001C8C01102B
:100FF000288C0110348C01103C8C0110D50200109B
:10100000C01A0020983A0000E5020010F01A0020F3
:10101000A8610000F5020010D81A002060EA000064
:1010200085E400201CD3002028260020488C0110D5
:10103000548C0110648C011089E40020248A011072
:101040002C8A0110408A011075E4002077E400200A
:1010500076E4002086E40020708C0110848C01105E
:1010600024260020081B00201506001000E0044084
:10107000D0231B065B685B0646D4079B1B78DFB258
:10108000002B41D1109804F087FA280000F008FBEB
:10109000089901230A2228000091232100F008FB6F
:1010A00011990123142228000091232100F000FB54
:1010B000280000F031FBBF4801F026FC0123129903
:1010C000079A0F6013708133A21E1370E21E137013
:1010D0006B3B621E1370B84AA3732260B74A62600A
:1010E000B74AA260B74AA281FFF76CFA01F09EFAF4
:1010F000139BB54A02930E9B01970093002301F0C6
:101100008FFC962001F000FC642001F0FDFBFCE662
:10111000AE4804F041FAFA20800001F0F5FB6AE5E0
:10112000D02380221B0612015A61A94B01271A689D
:1011300080231B0553401B0CA64A1B0413603A0076
:10114000A54BFA209B461B6840009A431300A34A14
:101150001360924601F0D8FB5B461B68059A1F405E
:1011600053461F6000230B98137001F0EDFC7FE7DE
:10117000D02380221B0692015A61954B01271A68E1
:1011800080231B0553401B0C924A1B0413603A003A
:10119000914BFA209B461B6840009A4313008F4AEC
:1011A0001360924601F0B0FB5B461B68049A1F4037
:1011B00053461F6000230A98137001F0C5FCD8E65F
:1011C00030680430052102F009F8C820316001F0D0
:1011D0009BFBB2E6D02380221B0652015A617C4B56
:1011E00001271A6880231B0553401B0C794A1B04F6
:1011F00013603A00784BFA209B461B6840009A43E4
:101200001300764A1360924601F07EFB5B461B6832
:1012100042461F4053461F6000230998137001F097
:1012200093FCA1E60F9B149F1A680C99380003F0F9
:10123000BFFF280000F034FA0D9B0A221921280074
:101240000093012300F034FA022314221421280011
:10125000009700F02DFA089B1921282228000093FE
:10126000012300F025FA5A4B01271A6880231B0539
:1012700053401B0C574A1B0413603A00564BFA208C
:101280009B461B6880009A431300544A13609246A1
:1012900001F03AFB5B461B6828001F4053461F6065
:1012A00000F03AFA4E4801F02FFB00234A46137033
:1012B000069B1B78002B00D151E6D027280000F0B8
:1012C000EFF9169B0A22242128000093012300F045
:1012D000EFF9179B1422242128000093012300F02A
:1012E000E7F9159B1E22192128000093012300F025
:1012F000DFF9189B2822192128000093012300F010
:10130000D7F9280000F008FA099801F01DFC0B98A5
:1013100001F01AFC3F060A9801F016FC7B689B0658
:1013200008D520239A46642001F0EEFA52467B68E5
:101330001A42F8D1FA200027800001F0E5FA069B56
:101340001F7001F073F9099B264A0293199B0197BC
:101350000093002301F064FB01F068F90A9B224A24
:1013600002931A9B01970093002301F059FB01F0AF
:101370005DF90B9B1D4A02931B9B01970093002371
:1013800001F04EFBEBE5306801301BE7184804F034
:1013900003F9012040421DB0F0BCBB46B246A9464D
:1013A000A046F0BD134804F0F7F80120F3E7124B14
:1013B0001593D8E4DC0500008282178282178282AE
:1013C000178282178282FFFFC0C62D00748B011026
:1013D0003400054034100540280005402810054021
:1013E00010270000002D310180C3C90180969800AC
:1013F000F08A0110D08B0110348A0110F0B54546F7
:1014000057464E46DE46E0B58FB018AD10CD944637
:101410002F780725267835406A1E9541A8466578BD
:10142000F608B044002D00D191E04646002E00D1D0
:101430008DE06246013A0C9201225918DE00914675
:101440000632A4460A96444600268846924619006B
:101450002B006246D57809947D1B5D4343465B1A99
:101460009B46AD1965435C4605350B9505944D4685
:1014700044460C9B6D1A5B180394002264468C460C
:10148000390004950D960B9D1F006519AE5C0792FF
:10149000089308250B0032006146A44605E0013D93
:1014A000EDB252087F18002D37D04C461442F6D0CA
:1014B000049CE619059C0029F1D0E0468B469C4629
:1014C00006920378310002959C4217D242789142ED
:1014D0000ED2CA085343C2684D46019252460A4092
:1014E00095402A00019D1B19ED5C2A43019DEA5499
:1014F000B94203D0037801319C42E7D3039B013406
:10150000029D9C42DDD15946069A013DEDB26346EB
:101510005208C4467F18002DC7D10A9D079AA846D5
:101520006446099D8C461900089B0132434495424C
:10153000A9D10F006146A446039B0D9E98466346C1
:1015400001365B78F2B22C0088449A4281D30FB006
:10155000F0BCBB46B246A946A046F0BDF0B5DE469B
:10156000574645464E46E0B50F009A468BB0149B51
:101570000600C8B242499B46D3B2394098461B0286
:101580000B4351461500D208D2B2140423431B0268
:1015900009061B0A0B4333605B465043736030619E
:1015A000013002F055FAF060002867D0354B03ACEB
:1015B00003934346013B2371D32363718023DB01F3
:1015C000E3808D232372337A0130F0606D00002BAD
:1015D00048D11423BD424BDB1221F12263722A4B06
:1015E00025276381DA2323735A3BFF3BE381593379
:1015F000FF332374254B61736382254B6274089318
:1016000000232376234B6F449846234B02AD994623
:101610000CE0013003D14146204804F045F8013484
:10162000A74217D073689B46F3789A460023227826
:101630002B706A70514600932A000233584606F018
:1016400003FD831CE5D141464846013404F02CF8E3
:10165000A742E7D101200BB0F0BCBB46B246A94679
:10166000A046F0BD1023BD4205DB12212222B5E7C2
:101670000221F122B2E702212222AFE73061EAE73C
:10168000FF00FFFFAED580A8A1C8FFFFDB30000040
:10169000A4A6AF20908C0110C08C0110A08C01106A
:1016A000030010B50021C0681A6902F0EBF910BD03
:1016B000F0B54E4645465746DE46E0B583B00C9D34
:1016C00081462C78924698460E00002C16D05F007A
:1016D000104B47449B467F002300203B01355E2B87
:1016E00013D85B4631000194009352464346484666
:1016F000FFF784FE2C78BE19002CEDD103B0F0BCAE
:10170000BB46B246A946A046F0BD2C78BE19002CB7
:10171000E2D1F3E710AA0110F0B5CE4647462123E7
:1017200080B5027887B004AC2380531EA3702223B7
:10173000E3700023237183780600013B6371402A24
:1017400003D1202363703F33A3701627224B6F44CD
:101750009846224B03AD994608E0013003D141463B
:101760001F4803F0A1FF0134A74213D000232278C1
:101770002B706A70F17870682A000093023306F0CB
:1017800063FC831CE9D141464846013403F08CFFD9
:10179000A742EBD140220024F368013B1A70336961
:1017A000F268F17870680133013A009406F04CFC5D
:1017B000831C0BD0013004D007B0C0BCB946B04682
:1017C000F0BD0849064803F06FFFF5E705490348F7
:1017D00003F06AFFF0E7C046908C0110C08C011046
:1017E000A08C0110D08C0110094A83009A1810B502
:1017F00014684022544080322240064CC000A44667
:1018000063441A60044B9C466044416010BDC0466E
:1018100004C0014004D0014000400140074B80005B
:10182000C3181B68C90092000A435A400C23134096
:10183000034A9446604403607047C04604C00140B8
:1018400004D001408000002905D0064B9C460223AD
:10185000604403607047044B9C460223604403606D
:10186000F8E7C04604E0014004F00140D0231B0625
:101870001B6830B50500584243412F205B4283432B
:101880000E48EC0884460720284080008140200054
:101890000B4D3C3063448000A40041511B19002AC9
:1018A00005D08022920194466344196030BDC02265
:1018B0009201944663441960F8E7C0463041014004
:1018C00000400140D023F0B5C6461B0698461B6871
:1018D0000C4F9B001600FA5804000D0000B5104292
:1018E00009D1290014430D203200FC5000F0B4F956
:1018F00080BCB846F0BD01F08DFB43461B689B00E1
:10190000FA58EEE7ECE2002010B504000D2000F0DC
:101910009DFAD0231B061B6802499B005A58A2431C
:101920005A5010BDECE200208000002905D0064B83
:101930009C464023604403607047044B9C46402310
:1019400060440360F8E7C04604E0014004F0014051
:101950000123D0228340120693629361094A8300D7
:101960009A1811684022514080320A400649C0004E
:101970008C4663441A60054B9C46052360444360D3
:101980007047C04604C0014004D0014000400140FF
:101990008023DB051868000F7047C0460FB400B500
:1019A000084883B003F0F8FD049B002B07D005A97D
:1019B0001800019103F036FC034803F0EDFD01200F
:1019C00003F048FCE08C0110D8A80110EFF3108060
:1019D00072B6034A1368002BFCD0BFF35F8F7047C9
:1019E0002C0100D0BFF35F8F0022024B1A6080F3FE
:1019F000108870472C0100D070B5EFF3108C72B6D0
:101A00000D4D2B68002BFCD0BFF35F8F0724CB0854
:101A1000C618C05C01230C40A3401C0004400342D4
:101A200007D118433070BFF35F8F2C608CF31088A0
:101A300070BD1000FFF7B2FF2C0100D0F8B547468B
:101A4000CE46884680B5EFF3108C72B6214D2C68D7
:101A5000002CFCD0BFF35F8F9A422CD8D408072704
:101A6000055D061901241740BC402C421FD00721F8
:101A70000127894609E0D408055D06194C4639005E
:101A80001440A1400C00294211D001329342F2D2FD
:101A900001204042BFF35F8F00220E4B1A608CF38F
:101AA000108800280FDBC0BCB946B046F8BD2543FE
:101AB00010003570EEE7BFF35F8F00232B608CF3CF
:101AC0001088012040424346002BECD00898FFF7D5
:101AD00065FFC0462C0100D030B5EFF3108C72B614
:101AE0000A4C2368002BFCD0BFF35F8F0723012231
:101AF0000B409A40CD08435D93434355BFF35F8F3E
:101B0000002323608CF3108830BDC0462C0100D028
:101B1000044A1078431CDBB2172B00D91023137032
:101B20007047C0465011002010B5064B064C82B0DD
:101B30000100009318221F232000FFF77FFF02B04F
:101B400010BDC046F08C0110E42500200021044B9C
:101B5000044ABFF35F8F02C39342FAD17047C04675
:101B6000000100D0800100D0054B064A1360064AF0
:101B7000136053609360D360136153619361704746
:101B80008080808000E400E004E400E01F2318402F
:101B90001E3B8340002905D0C021044A4900535010
:101BA00013607047802201498B50FAE700E100E0A2
:101BB00001228240034B1B6813405A1E9341D8B246
:101BC0007047C04600E100E001238340014A1360F2
:101BD0007047C04600E200E0084B10309B68800070
:101BE000C358002B07D0064A00209B1A2F229A4286
:101BF0004041C0B270470020FCE7C04600ED00E065
:101C00005411002070B50D00EFF3108672B60F4A24
:101C10001368002BFCD0BFF35F8F0D4B10309B6817
:101C200084001B590B4A934203D09D4201D001F01E
:101C3000F1F9074B9B681D51BFF35F8FBFF35F8FB7
:101C40000022024B1A6086F3108870BD240100D078
:101C500000ED00E0CD010010F0B557464E46DE46DF
:101C60004546E0B585B0060000911700EFF3108BF4
:101C700072B66A4A1368002BFCD0BFF35F8F002551
:101C8000674B5D579A46002D00DAA9E06B00654C62
:101C900001935B199B009846A146C1444B465246AE
:101CA0009B7910361370604BB6009B6899590B1BDB
:101CB0002F2B33D95D4B994200D0ACE0019B4246BB
:101CC0009C465B4B6544AD0063535A4B0232A218ED
:101CD000043B9B1A1B05584A5B0D651913436B8027
:101CE000564B0121AB80FF23AB71009BEF71AB60C2
:101CF0004B460B4319004C4B9B689951BFF35F8FC8
:101D0000BFF35F8F0022454B1A608BF3108805B03C
:101D1000F0BCBB46B246A946A046F0BD01200A0071
:101D20008243D3798C46BB4231D84546130044499F
:101D30001B1B5B415943090D3D4B63533D4B023522
:101D40006519043B5B1B1B053B4D5B0D2B43AA46F2
:101D50004D466B800425AC465546E044131F444471
:101D60001B1B1B055B0D1D434B46997100999D8004
:101D700099604946DF71334B01431360BBE758005C
:101D8000C01880002018C179B9422FD9020006235B
:101D9000D356002BF3DA02932B4B61460393131DAA
:101DA0009A4604235B429C46E14450464B461B1A2C
:101DB0001B055B0D9C46204B95719846634640463B
:101DC00003439380019B5A199200039BA418A3809C
:101DD000029B1C4AA371009B2260E771A3608AE703
:101DE00001F018F9002553465D574FE7908802939C
:101DF0004005131D9A46031561469C464046D4444F
:101E0000634604302018181AE0230005400D1B0219
:101E100018430390C5E701F0FDF84FE7240100D017
:101E20007FE400205411002000ED00E0CD010010FF
:101E300000A1FFFF8411002000E0FFFF01BDFFFFB4
:101E4000AAAA00000148804701BD0000F0B5DE46A7
:101E500057464E464546E0B50C0083B0EFF3108878
:101E600072B6634A1368002BFCD0BFF35F8F614BDF
:101E700061499A68030010339F00D55900938D4241
:101E800043D0A54254D05D4EAA1B2F2A3DD85C4BAF
:101E90009C461B689A4601231A0099468240534685
:101EA00013401F2201934B46024093409A468022E2
:101EB000634650469850BFF35F8FEFF305839B4610
:101EC000002B37D0009B5B4501D001F0A3F82A001E
:101ED0004B469A439068844208D177E04B005B18E8
:101EE0009B00F3189868844236D01A000621515698
:101EF0000029F3DA844255D0019B002B27D0C02261
:101F000051463F4B5200995019603A4B9B68DD5146
:101F1000BFF35F8FBFF35F8F0022354B1A6088F3EA
:101F2000108803B0F0BCBB46B246A946A046F0BD3F
:101F30000D00EAE72A004B469A4390688442D5D1C7
:101F400006201056130000280ADA0D0032E0802324
:101F500051462B4AD150D8E706201856002822DBDC
:101F600042001118890074188946A1689960E179C6
:101F7000D971062161569971002925DBA488F11ACF
:101F8000640524154C440919E0240905490D24026F
:101F90002143998013181B4A9B001178F3189971FB
:101FA0001070A9E713005946002914D1FF3191712F
:101FB0001549918013490A789A71144A9B1B5B4119
:101FC0005A43120D0A7097E71149E2E706201056AE
:101FD00013000028C4DA0F4A0F49D21A083A5002F7
:101FE000400D014399800D4952080A43DA8083E786
:101FF000240100D000ED00E0CD01001054110020BC
:1020000000E100E07FE4002001BDFFFFAAAA00007C
:1020100001BD00008E11002000F0FFFF00F8FFFF5F
:1020200010B58308040003202040FF24054AC000A7
:102030009446844081409B0063441A68A2430A434B
:102040001A6010BD00E400E070B501240443EFF312
:102050000581EFF3108C72B6214A1368002BFCD077
:10206000BFF35F8F1F4B05001F4AED1A6D416A4396
:10207000120D1E4D8900AE6852B27658A6421CD091
:102080000621595691421CD012215956914222D014
:102090001E215956914220D02A215956032491429B
:1020A00010D0134B19781A708171BFF35F8F002223
:1020B0000B4B1A608CF3108870BDAB680D4C5C50F4
:1020C000EFE700246100091989005B18FF2199716D
:1020D00009499980E5E70124F4E70224F2E7C046C4
:1020E000240100D054110020AAAA000000ED00E055
:1020F0007FE40020CD01001001BDFFFF1F2110B5BE
:10210000091A0248FFF7E8FC10BDC0468DE4002024
:1021100010B5084B084C82B0010000930022052343
:102120002000FFF78BFC002801DB1F23181A02B0E8
:1021300010BDC0460C8D01108DE4002070B5040068
:102140000E001500FFF7E4FC0100200000F006F887
:10215000A680E580BFF35F8F70BDC046024B9C46F2
:1021600061448900016070474000003470B5114C33
:10217000114DAC420FD2FF262368002B0CD0FFF785
:10218000C7FC01002000FFF7E9FFA680BFF35F8FC7
:102190000834AC42F0D370BDFFF7BAFC0100200058
:1021A000FFF7DCFF2671BFF35F8F0834AC42E3D347
:1021B000F1E7C046E0170020E817002010B5040042
:1021C000FFF7A6FC01002000FFF7C8FFFF232371E3
:1021D000BFF35F8F10BDC04610B50400FFF798FC39
:1021E00001002000FFF7BAFFFF23A380BFF35F8F3A
:1021F00010BDC04610B504000120FFF795FC034B4D
:10220000C3189B002360BFF35F8F10BD40000034F4
:10221000034B9C46614489000160BFF35F8F7047A8
:10222000400000340A4B1968EFF3108072B60A6858
:10223000002AFCD0BFF35F8F1B68BFF35F8F0022C3
:102240001A6080F3108840BF002000217047C0460C
:1022500010E40020F0B5DE4657464E464546E0B550
:1022600083B0EFF3058203231340B54A9900525817
:102270000091904601229A40B24B93461A60B24BAD
:1022800001932EE043469B881BB2002B00DB99E0B4
:1022900043469B79002B00D0DDE0434608241C5FB9
:1022A000002C00DA06E143465A6963001B19DB0083
:1022B000D3189D68DC686B1C00D107E1A34B009923
:1022C0009C4661449A6A0B69A81A9B1A984200D2EC
:1022D0000D619E4800F084FC8C4200DDEAE000D1F4
:1022E00026E15B4699484363434608229B5E994634
:1022F000002BC7DB424652695B0092464B44DB0031
:102300009A4453469E68DF6800F06AFC8F42B9DC4D
:1023100000D100E1002F00DAE1E052465346546953
:102320001B69019A934200D1D4E0414652460820ED
:10233000085E5288000421001043984704000D00F5
:1023400023002B4300D1CAE0002D00DBE7E0300082
:102350003900001BA94153469860D96000229A5E5B
:10236000002A8FDB43465D6953009C18E4002C195A
:10237000A768E4688C4200DD84E702D1874200D977
:1023800080E74646328108360DE08C4200D1D3E02A
:102390001E000023F25E002A0ADB53009C18E400B2
:1023A0002C19A768E4689B18DB00EB188C42ECDD65
:1023B00053461A804B46338043469B881BB2002B02
:1023C00000DA65E743461A69EFF3108172B61368C5
:1023D000002BFCD0BFF35F8F43469E88012342460B
:1023E0005B42938036B21369BFF35F8F00221A609D
:1023F00081F31088002E00DA4AE743465D6908330E
:1024000042469C467700BF19FF00EF19BB68604643
:1024100098460823D15E9246FC68002907DA0EE050
:10242000A2424FD018000023C15E002906DB4B00FA
:102430005B18DB00EB18DA68A242F1DD5246068039
:102440000023FE5E3980002EDCDA904643469B79FD
:10245000002B00D121E700234246937143464646B4
:102460000821595E08364B1C24D0474689465569D9
:1024700002E006004B1C18D04B005B18DB00E8188C
:102480000A008C46E95E43881BB2002BF1DA012377
:102490005B42DC178360C4604A4503D031803B89CE
:1024A00003803A81E1464B1CE6D14C46B846002CED
:1024B00000DBF8E640BF03B0F0BCBB46B246A9461D
:1024C000A046F0BD9A684245ACD9B7E7631C00D07E
:1024D000F4E6FEE6200023699847002825D15346FC
:1024E00042461B8813811269EFF3108372B611689C
:1024F0000029FCD0BFF35F8F4246514652880A80C4
:102500004246494651801269BFF35F8F0021116036
:1025100083F31088B6E6864200D8FBE6B2E60B48A5
:1025200000F05EFB0019694115E76568246807E75C
:10253000854200D8D5E6BDE7874200D828E737E7CF
:1025400020D300203C70054055220010004005407B
:1025500070B52E4C2569002D04D00A212C48FFF7B8
:10256000FDFD70BD2B4E0321300000F02FFBE66017
:10257000FFF7CEFA284B03229C46D02322701B067D
:102580001B6801216370254B6044A3600F2380000A
:1025900020610220638063694942A1801980023171
:1025A000198647311D83585218315A5275325C3999
:1025B0009952183201319952183201319952183218
:1025C00001319952083518329D5202311832995210
:1025D00018320131995218320131995218320131B1
:1025E00099521832013199521832013199520C4BDB
:1025F0000C49DC6001303562FFF704FB0121032048
:10260000FFF7C4FA084B1D60A7E7C0469C110020E5
:1026100010E400200040054040000034FFFF10009F
:1026200020D3002055220010386005400048704734
:102630009C110020F8B51F0008AB1B7804001600A1
:10264000002B08D100F0D4FA32003B00121A8B4163
:10265000002B00DA53E02269EFF3108072B61368A2
:10266000002BFCD0BFF35F8F0223E15E63694A0059
:102670005218D2009B18002937DB1A886280226921
:10268000BFF35F8F0025156080F31088069A9E6067
:10269000DF601A61079A5A615A8801325204520C5B
:1026A000101C002A1FD082B25880080410432669EB
:1026B000EFF3108772B63268002AFCD0BFF35F8F49
:1026C000A2881A80A1802369BFF35F8F00221A605D
:1026D00087F310880B4923788C4601329A40E368CF
:1026E00063441A60F8BD0120DDE72369BFF35F8F03
:1026F00000221A6080F3108801204042F2E7002097
:10270000F0E7C0463C20000070B501000469EFF31B
:10271000108C72B620680028FCD0BFF35F8F0220B7
:102720000D5E4C6968004019C0002418002D37DB8D
:10273000208848800869BFF35F8F002606608CF30D
:102740001088E36063880498013320615B04059876
:102750005B0CA26060611A1C002B1FD093B228048E
:10276000628018430A69EFF3108C72B61368002B6D
:10277000FCD0BFF35F8F8B8823808D800B69BFF304
:102780005F8F00221A608CF310880B7801329A4018
:10279000CB6808498C4663441A6070BD0122DDE7AE
:1027A0000B69BFF35F8F00221A608CF31088012041
:1027B0004042F2E73C20000010B543890A149342DE
:1027C0001ADD53009B184269DB00D3180469EFF34C
:1027D000108C72B62268002AFCD0BFF35F8F5A8833
:1027E000090494B2090C8A4208D00369BFF35F8FD1
:1027F00000221A608CF31088002010BD8022120283
:1028000014435C80012302698371BFF35F8F002151
:1028100011608CF31088044902788C469340C2689A
:10282000012062441360E8E73C20000040787047D4
:10283000F0B504000D0006267642F717C646361995
:102840006F4100B582B08F4214D811D000F0D0F99A
:1028500032003B00121A8B41002B17DC002B47D0B3
:102860002000290000F0CEF902B080BCB846F0BDCF
:102870008642EBD90022002316001F0000F0B8F9B1
:1028800032003B00121A8B41002BE7DD00F0B0F95B
:1028900032003B00121A8B41002B0ADB002301930C
:1028A000154B3200009315483B00FFF72DFF002821
:1028B000D6DB00239C46B046114A124E736A9F42F3
:1028C00004D8B16A8845CBD99F42C9D11168EFF3CA
:1028D000108072B60B68002BFCD0BFF35F8F1368BB
:1028E000BFF35F8F6146196080F3108820BFE5E772
:1028F000002AB5D0CAE7C046252200109C1100204E
:1029000010E400200040054070B5060000F070F9AA
:10291000FA2204000D00002330000021920000F094
:10292000F7FF8023001969411B06994202D3012059
:1029300002494042FFF77CFF70BDC046FFFFFF7FAA
:10294000F0B5CE46474680B504000D0083B0EFF3E6
:1029500005878846002F3ED12E4EA1463378F06879
:1029600004339B00816A1B58601A5B1A98420ED38D
:1029700020BF294900204B6AAB4203D38A6A013049
:10298000944231D803B0C0BCB946B046F0BD00F0A7
:102990002FF922002B00121A8B41002B2FDB1F4B2B
:1029A0002200009330002B000197FFF7ADFE011EBF
:1029B00025DD194B5A6AAA421BD220BF3000FFF70F
:1029C000FBFE154A0020536A4345DBD3926A01306F
:1029D0009145D7D908E0104900204B6AAB42D1D3CA
:1029E0008A6A0130A242CDD25B1B5A1E9341D8B2F3
:1029F000C8E79B6A9C42E1D9AA42DFD1DDE7064ADB
:102A00000020536A4345BDD3926A01209145B9D94C
:102A1000EAE7C0469C110020004005402522001036
:102A2000F0B5CE464746110080B583B004009C4601
:102A30000C9D194300D16EE06146DB1701930093B2
:102A400053401E00019B4B401F0000980199361A0D
:102A50008F4163460A996B600B9BAC606B61296187
:102A60002A6000F0C5F88023801979411B0699423D
:102A700002D30120314940422269EFF3108972B636
:102A80001368002BFCD0BFF35F8F0223E65E6369FF
:102A900072009219D2009B18002E44DB1A886280C3
:102AA00022699046BFF35F8F002247463A6089F360
:102AB0001088234A9860D9601A615A885D61013292
:102AC0005204520C111C002A2BD088B2320402434B
:102AD00059802069EFF3108772B601680029FCD095
:102AE000BFF35F8FA1881980A6802369BFF35F8F32
:102AF0000021196087F31088124823788446013139
:102B000099400120E36863441960EA6003B0C0BCE7
:102B1000B946B046F0BD00230126002701229C469D
:102B200097E70121D1E72369BFF35F8F00221A6085
:102B300089F310880020013AE7E7C046FFFFFF7FD6
:102B4000552200103C200000C268030030B5002070
:102B5000002A00D130BD996814144889844219DADA
:102B6000600000194C69C00020180D69EFF3108C4B
:102B700072B62C68002CFCD0BFF35F8F448812041F
:102B8000120CA2420AD00A69BFF35F8F00211160C4
:102B90008CF3108800200022DA60DBE78024240216
:102BA00022434280012208698A71BFF35F8F0024AB
:102BB00004608CF310880878C96882400248844613
:102BC000614401200A60E6E73C20000010B5024A9B
:102BD0000248FEF711FF10BD288D0110E8250020E6
:102BE0000300416A0A00986A596A8A42FAD170471A
:102BF000034B596A0A00986A596A9142FAD17047A0
:102C000000400540064A536A9942FCD807D1044B5C
:102C100002E05A6A914202D19A6A8242F9D370471D
:102C200000400540F8B5DE464E4657464546E0B5FD
:102C30008B4605000A991800160000F0F7FA0A9B67
:102C40006C001F02324B64199C46A4006444636804
:102C500081469F4200D967602B1FDBB29846012B4B
:102C600030D9C02380229B01E31812011A60294B3E
:102C7000AD0059599A4600291BD17301E0262268FC
:102C800053401E40802342465B01E3181E60012A28
:102C900030D9802380229B01E31812011A60534629
:102CA0004A4667605A51F0BCBB46B246A946A046A8
:102CB000F8BD586900F0BAFA013043001B18033B15
:102CC000FDD2DAE75B46012BCBD1C02303229B0167
:102CD000E3181A60023AA3681A42FCD07301E02696
:102CE0002268AD0053401E4080230A4A5B01924691
:102CF000E3181E605A462168514003220A401A60B8
:102D000001225B469A40A3681A42FCD0C1E7C04644
:102D100000800040F0250020F0B546464F46D646DC
:102D2000C0B51F00344B44009C462418A4006444E2
:102D3000636888461600FF2B02D880235B0063601F
:102D4000031FDBB29A46012B30D9C02380229B019E
:102D5000E31812011A60294B850059599946002938
:102D60001BD17301E026226853401E408023524647
:102D70005B01E3181E60012A30D9802380229B0169
:102D8000E31812011A6080235B0063604B465F51B9
:102D9000E0BCBA46B146A846F0BD586900F046FA14
:102DA000013043001B18033BFDD2DAE74346012BF9
:102DB000CBD1C02303229B01E3181A60023AA36817
:102DC0001A42FCD07301E0262268850053401E4061
:102DD00080230A4A5B019146E3181E60424621683F
:102DE000514003220A401A60012342469340A268E0
:102DF0001342FCD0C1E7C04600800040F02500200F
:102E0000014B8000C0587047F0250020F8B5040041
:102E100021481E0017000D0000F008FA01003800DC
:102E200000F004FA069B36041B031E432368002BA4
:102E300020DB1A4B1A49E3185A1E93418022920153
:102E400094465B421B0B174A1B0363441360164AEC
:102E500013601F000A689743FBD1144B2560E218EA
:102E60002123A06013602368002BFCDA0823E660AE
:102E70001360F8BD3F2322681340AB42D9D1A36849
:102E80001B051B0D8342D4D1EE22E368D20213400E
:102E9000B342CED1EDE7C046001BB7000040FDBFF6
:102EA00008C0004000E0004000F000400430000096
:102EB00010B580241C4BE4051C6000281AD00123A7
:102EC0001A4C18431A4BDC611A4C44401C6259627C
:102ED00098628021144BC90519601748174908608A
:102EE000E021C9041960002A07D18022144B120680
:102EF0001A6010BD0E4BD861EBE753019B1A9B0083
:102F00009A18802312015B049A4209D213000D49DA
:102F10000B60074B5A608022094BD2051A60E8E724
:102F2000094B1A00F3E7C04600B00540D3C007B014
:102F3000008005402D3FF84FFCFF010008200140B4
:102F400000A0054054390020FFFFFF008023024A03
:102F50009B000B43D362704700800540142310B5DB
:102F60000100188804331B88984710BD162310B53C
:102F70000100188802331B88984710BDF8B54746F2
:102F8000CE4680B50F1E19D0142399460433040091
:102F90000025012698464B461888434621681B8821
:102FA000984701C4431E9841013540420640AF4254
:102FB000F1D13000C0BCB946B046F8BD0126F8E7F3
:102FC000142370B50400188804331B880D000549CC
:102FD000984703000020002C01DB0130A0402900AD
:102FE0009847C04655420000AA23064A1B011360B9
:102FF0002F230549D360054B19605368002BFCDA79
:103000007047C0460040024000B0FA000060024035
:103010007047C04610B50148FEF7C0FC4C8D01104A
:1030200070B5074D074EB54209D20024013E761B0C
:10303000B60808CD984723000134B342F9D170BDDA
:1030400080870110BC870110054B064A06491A60AB
:10305000064A074B1A6010000B689843FBD1704773
:1030600000E00040BFCDFBFE08C00040FE7F3C00FA
:1030700000F00040044BDB6C002B03D18022034B9B
:10308000D2021A607047C046000011504C20115007
:10309000044A054B1A60054A1368DB018033FBD1F3
:1030A0007047C046FFFFFF0100F0004008C000402D
:1030B0004022034B9A675A671A67DA667047C04620
:1030C00000F0014010B5FEF741FD10BD70B5044D94
:1030D000044CA968C022200000F0DAFCAC6070BD8E
:1030E00000ED00E000000020002310B5294C82B064
:1030F000A367FFF779FF0122274B1A60636C012B4E
:10310000FCD10322254B1A60224A936B012BFCD180
:10311000013300930121224A22480433FFF776FE4F
:10312000052301210093204A2048FFF76FFE00226B
:10313000022104201E4BFFF7EFFD00220121052094
:103140001C4BFFF7E9FD0022002107201A4BFFF777
:10315000E3FD002200210820174BFFF7DDFD80234F
:10316000DB000093002200210920134BFFF75AFDDA
:103170000022104B00210620FFF7CEFD0420FFF7B0
:103180003FFE0E4900F052F801000020FFF7DEFE7E
:1031900002B010BD008000403CB0004030B00040A4
:1031A000002F685900800240008C864700C0024012
:1031B000001BB70040597307006CDC0240420F004F
:1031C00001480421014B1847C01100207D2F001039
:1031D000014B9B6818470000C0110020124A936FF2
:1031E0009B0815D29066D166002905D0FFE7FFE75E
:1031F000FFE7516F106F704704B580210906C217B1
:103200005140002800D0C84315F06AFA002104BDDF
:10321000F0B5146E556E576F166FFFF7E3FF146627
:10322000556657671667F0BD000000D0114A936FCE
:103230009B0813D210665166002905D0FFE7FFE70F
:10324000FFE7516F106F704704B5002801D00020D0
:10325000C04315F045FA002104BDC046F0B5146E18
:10326000556E576F166FFFF7E5FF14665566576783
:103270001667F0BD000000D094464A4A926F92084B
:10328000624601D228E0C046F0B5464E346E756EF7
:10329000776F366F00F020F89446424A1466556600
:1032A000576716676246F0BD94463E4A926F920891
:1032B000624601D254E0C046F0B53A4E346E756EA7
:1032C000776F366F00F04CF89446364A14665566B0
:1032D000576716676246F0BD002B24DB11D000292A
:1032E0003EDA00B5C943404200D1013100F038F860
:1032F000C943404200D10131DB43524200D1013386
:1033000000BD002AEBD1002801D1002905D0002002
:10331000C90FC90701D1C043410800B515F0C0F974
:103320000022002300BD00B500290ADBDB43524226
:1033300000D1013300F014F8C943404200D10131FB
:1033400000BDC943404200D10131DB43524200D1AC
:10335000013300F005F8DB43524200D1013300BDD8
:10336000002923D1002B18D1002A0CD0BC460D4FC8
:1033700038667A6600210023FFE7FFE7FFE77A6FF0
:10338000386F67467047002801D00748010000B534
:1033900015F086F90022002300BD02000B0000207A
:1033A00000217047000000D0FFFFFFFF002B00D07E
:1033B000BFE0130C28D1002AE7D080B4114F396642
:1033C0007A66FFE7FFE730B4040C7B6F396F1B04AC
:1033D00023433B667A66FFE7FFE7FFE7C04684B218
:1033E0007B6F3D6F1B0423433B667A66FFE7FFE775
:1033F000C04600232C042D0C7A6F386F00196941E8
:10340000B0BC7047000000D0F0B594460025140E03
:1034100001D112020835140F01D112010435940FA5
:1034200001D192000235D40F01D152000135D40BE5
:103430000134254F7C66254C3C660E0C93B2FFE7A9
:10344000FFE7FFE73C6F6643360C7703BE467343E6
:10345000DF0B5B04C01AB941130C7343DB18C91AA4
:10346000CE086643360CB64493B273431F0F1B015C
:10347000C01AB941130C73431F0B1B05C01AB94185
:10348000860D8F023E436643360C092D24DB520A1B
:103490007243801A7703460A6643360C16235B1B79
:1034A000DE40DF40BF1964466643821B7046043528
:1034B00006330100D940A840C01900D30131A2420F
:1034C00006D20023F0BD0000000000D0FFFFFFFF88
:1034D000121B0130F3D3F1E709277F1BFE4064463E
:1034E000A2B27243801A00D20139220C7243130C2B
:1034F0001204821A99410B007046043513370100FB
:10350000F940A840801900D30131002B02D1A2421A
:103510000AD2F0BD013000D30131121BFAD2013BB7
:10352000F8D1A24200D2F0BD013000D30131121B0C
:10353000F7E7F0B51C0C00D080E00CB400251C0AA5
:1035400004D11B02160E3343120208351C0B04D1A2
:103550001B01160F3343120104359C0B04D19B0051
:10356000960F334392000235DC0B02D192185B4177
:1035700001351C00971864410134464F7C66464C67
:103580003C660E0CFFE7FFE7FFE7C0463C6F664373
:10359000360C7703BE4697B27743C01B00D2013981
:1035A000C01B00D201399FB27743C91BC91B170C3E
:1035B00077437E04FF0B801BB941CE086643360C6F
:1035C0000C2D33DBB644120B1F053A431B0B97B28D
:1035D0007743C01B00D201399FB27743C91B170C38
:1035E00077433E043F0C801BB941860D8F023E435A
:1035F000664329277F1BFE400C3D7746AF40BF192D
:1036000030BCA2B2ABB272437343801A9941220C10
:103610007243130C1204801A994102000B00013707
:10362000001BA941F9D2781E0021F0BD0C277F1B99
:10363000FE4077467F0BAF40FF19E0E700245D1C9A
:1036400007D0144F7D663966FFE7FFE7FFE7FFE726
:103650003C6F95B29EB265436643401BB141150C69
:103660001E0C6543664336042F0C3E432D04401B5D
:10367000B141994204D202000B0020000021F0BDAC
:1036800001D19042F7D3801A994101349942F2D383
:10369000F6E70000000000D0FFFFFFFF4840414078
:1036A000484018B4134B5B68019308BD18B4114B24
:1036B0001B68019308BD94460F4A926F920805D289
:1036C000624618B40B4BDB68019308BD0A4AF0B59B
:1036D000146E556E576F166F6246FFF7F2FF064A7B
:1036E0001466556657671667F0BD18B4014B9B68A2
:1036F000019308BDC0190020000000D0FFB5504064
:103700004240504059404B40594000E0FFB5154FF2
:103710004C00640D03D0BC4204D10C0314D800202B
:10372000090D09055C00640D03D0BC4204D11C03E3
:103730000AD800221B0D1B0501264B4009D44B4023
:1037400003D58B4200D18242FFBD9942FCD1904209
:10375000FFBD0B43DB1803431343F5D0C94349189E
:10376000FFBD0000FF07000000B5FFF7CFFF80415D
:1037700000BDC04600B5FFF7C1FF01D9002000BD64
:10378000012000BD00B5FFF7B9FF804100BD012059
:1037900040054A00121804D85A00121801D8002017
:1037A00070470120704700000021002805D17047B4
:1037B000C1174840401AFAD0C90713B5064B1B6819
:1037C00098470CBC441CA2401005120B0349091B6E
:1037D00009051943114310BD0CE300201F0400002C
:1037E00010B54C00620D8023D218DB00D21A5B05A5
:1037F0007E2A10DD9E3A13DACC17090349081943D3
:103800005242D140640001341532202A05DAD040FA
:103810000843604310BD002010BD0846604310BD42
:10382000C80FC018013810BD18B4024B5B6A019371
:1038300008BD0000C019002010B50148FEF7AEF821
:10384000588D0110132370B51D78012D19D014DD8A
:103850001D48FFF78BFB06001C48FFF787FB1C4C3D
:1038600080223100200000F013F9022D06D0194803
:10387000FFF774FB184B186070BD154C174BA36411
:10388000F5E7174B124C23606360A360E36023618C
:103890006361A361E36123626362A362E362236302
:1038A0006363A363E36323646364A364E3642365E2
:1038B0006365A365E36523666366A366E3662367C2
:1038C0006367A367E367D9E75344000053460000EA
:1038D000C01900204C3300000CE30020E538001034
:1038E0003938001007B5604601880A0A0230DF2A1D
:1038F000FAD1C9B2820804D3028840880004104378
:1039000000E00068014A5050039007BDC019002034
:1039100051434343C9188C46110C83B24B4310B436
:10392000040C614392B280B2504362431C041B0CEE
:10393000001910BC59411304120CC01851416144C4
:10394000704700004840414048400E4B5B681847B4
:103950000C4B1B6818470C4A936F9B0802D2094B0B
:10396000DB681847F0B5146E556E576F166FFFF78A
:10397000F6FF054A1466556657671667F0BD014B9A
:103980009B68184710E30020000000D0491A002867
:1039900008D1084670470000C10FC90700D5404252
:1039A000002817D0F44603B40B4B1B68984706BC9D
:1039B00081409E384042803107D20B0607D0490033
:1039C000490AC0051043084360470130F8E7490A37
:1039D0008902F5E7704700000CE30020014B5B6AA9
:1039E0001847000010E3002010B50148FDF7D6FF8E
:1039F000BC8C0110132310B510481C78FFF7B6FAE1
:103A00000100012C0AD003DD80220D4800F040F8AF
:103A10000C48FFF7A3FA0C4B186010BD084C542259
:103A2000200000F035F82200084980322368002B7E
:103A300000D1216004349442F8D1E9E753460000F4
:103A400010E300204C3300000CE30020E9390010A3
:103A500010B5040014F024F9002804D0034B041915
:103A60009C4200D810BD0248FDF798FF00000420DA
:103A7000708D011001480421014B1847D01100201E
:103A80007D2F0010014B1B6818470000D01100204B
:103A9000014B5B6818470000D01100209A4200D209
:103AA000885470477047C046F8B55746DE464E46C4
:103AB0004546E0B599460A9B07009A460D9B884605
:103AC00093460B9C9B073BD10C9B9C423DD21E1BFB
:103AD0000B9415000C005E442A004B460135210072
:103AE0002020B847B542F7D1A0460B9C002C20D02F
:103AF000454636195346321B013C185D29004B469A
:103B0000B847002CF6D12B00350098460D9B9B073B
:103B10000FD55B46EC1A0C9BA3420AD94646984641
:103B20002A004B46310020200134B8470135444576
:103B3000F6D32800F0BCBB46B246A946A046F8BD65
:103B400016001500002CD3D1E0E71600002CCFD1D1
:103B50001500EEE7F0B54F464646D646C0B584B0F0
:103B600098460EAB1B7894469946129B0D9C109F6D
:103B7000119E9A0725D4002E65D1BC4221D2012284
:103B80001A409246202C00D1E9E00C9A551E3022B2
:103B900002E0202C00D17BE001342A55A742F8D85E
:103BA0005246002A0DD0B4420BD20C9A551E302238
:103BB000202C02D171E0202C2DD001342A55B442A2
:103BC000F9D1DA063CD55A052ED4002C28D10F9A0B
:103BD000102A00D1B6E0022A00D1BCE030220C9CB1
:103BE000227001244A46002A65D15A0700D499E080
:103BF0002B220C9D2A55013403930C9B62460093A3
:103C0000029643460194FFF74FFF04B0E0BCBA466A
:103C1000B146A846F0BD2024DA06EDD55A0503D4F6
:103C2000A74266D0B44264D00F9A102A71D0022AFB
:103C300057D0202CE0D02200013430250C9FBD54F9
:103C4000202CD9D0CEE7012215001D40AA461A42E9
:103C500036D04A46002A4AD10C321A4247D1BC42D9
:103C6000A1D2202C91D1202E17D82024DA06C3D53A
:103C70005A051BD4202F01D0202ED5D11F220F9DF5
:103C8000102D6FD0022DD8D162250C9FBD54D0E7E6
:103C90005246002A79D0202EBDD92024DA06ABD591
:103CA0005A0503D4202FE9D0202EE7D00F9A102AEE
:103CB000A2D12024A0E72D220C9D2A5501349BE798
:103CC000BC4200D37DE7202C00D05EE7DA06F0D5B9
:103CD0005A05EED4202F62D0202EEAD134001F22C4
:103CE000CDE7202C00D187E722000134CCE7013E4C
:103CF000B5E7621E012CC2D10F9A102A00D06AE7E4
:103D00009A063BD558220C9C2270283A62700224F5
:103D100068E79A060ED4202CCBD078220C9D2A5529
:103D2000013486E71A0700D466E720220C9D2A5545
:103D3000013461E7202CBCD058250C9A121915705B
:103D4000013476E79A0608D558220C9C227030225E
:103D50006270022446E76032F7E77822F5E7002A2E
:103D600083D1B3E7A21E013C9D0603D478250C9FA6
:103D7000BD5460E758250C9FBD545CE778220C9C2D
:103D80002270483A627002242CE7DA0600D433E746
:103D90005A058BD4202F00D044E71F226FE73C0048
:103DA0001F226CE710B5002800D110BD01F0A8FB60
:103DB000FBE7C0460B0010B5002802D049681B681D
:103DC000984710BDF0B557464E464546DE46E0B52D
:103DD00099B08246894690460893229A239B100008
:103DE0001900FFF7D4FC002800D0CDE022982399D9
:103DF0000122D94B5242FFF7C5FC002800D0C3E096
:103E0000229823990122D54B5242FFF7ADFC00289E
:103E100000D0B9E02298239900220023FFF7A4FCE8
:103E2000002800D0F1E1229E239F8023269ADB0008
:103E30001A400D92269A1A4201D106232493802318
:103E4000269A1B011A403B0093460996334300D043
:103E5000B3E0002A00D0C2E1002300240A930B94AF
:103E6000002304250993259B0024AB4200D95C1B49
:103E70000223269A1A400C92269A134203D06B42D0
:103E80006B415B421C40099B002B07D00A9A0B9B9D
:103E900030003900FFF70FFC06000F00229823992D
:103EA00000220023FFF760FC002803D080210906D0
:103EB0007B181F00269AAA4B009601971340089E74
:103EC0000493249B03940293424633004946504690
:103ED00000F0AAF90400002D67D02020269A494658
:103EE000024013005A4253415B42621C18400A923E
:103EF000330022004530D047099A6F1ED317D418DB
:103F00005C40D30F9B46002501E0202D13D008AA6A
:103F100094461F23200063440A2101355E19FFF7F0
:103F200085F93031317020000A21FFF77FF9260032
:103F30000400092EE9D805230693002304930A33CD
:103F400003935B46089E029310AB0A9A009349467E
:103F50003300504605970195FFF7FCFD0C9A0400CD
:103F6000002A22D04246851A259AAA421DD9B04677
:103F70005746160022004346494620200135B847DF
:103F80000134AE42F6D810E0269B42460493259BAE
:103F900049460393249B50460293229B239C009303
:103FA0000194089B00F040F90400200019B0F0BC17
:103FB000BB46B246A946A046F0BD6A4B78009C4677
:103FC000400D6044FFF7F4FB674A684BFFF78DFB39
:103FD000674A684BFFF76AFB674A3B031B0B1A43B0
:103FE00004000D0009981100644B0022FFF759FBF3
:103FF000634A644BFFF779FB02000B0020002900A5
:10400000FFF754FBFFF7ECFB0990FFF7D1FB5E4A8B
:104010005E4B04000D00FFF768FB00225C4BFFF7CE
:1040200045FBFFF7DDFB5B4A5B4B29000C90200052
:10403000FFF75BFB04000C980D00FFF7B9FB574A34
:10404000574BFFF752FB02000B0020002900FFF73F
:1040500028FB04000D0002000B000A940B95FFF7EB
:1040600044FB04000D000A980B9902000B00FFF7B7
:104070001DFB00220E900F914A4B20002900FFF7F4
:104080001AFB0022484BFFF711FB02000B00200037
:104090002900FFF710FB0022444BFFF707FB02004B
:1040A0000B0020002900FFF706FB0A9A0B9B0D006E
:1040B00080210400C9050020FFF7F3FA02000B007D
:1040C00020002900FFF7F2FA02000B000E980F996A
:1040D000FFF7F1FA0022284BFFF7E8FA344B0C9C6B
:1040E0009C46644423050022FFF7FFFA04000D00FC
:1040F00002000B00300039000A940B95FFF734FBE7
:1041000000285DD123002A00C625099963318D421C
:10411000AD4159466D420435002900D1A3E6134351
:1041200063D030003900234A234BFFF723FB0028DC
:1041300007D0002230003900204BFFF715FB002884
:1041400053D1249B002B00D18DE60D9B5A1E934129
:10415000249AD31A249386E6FFFFEF7FFFFFEFFF39
:10416000FFF7FFFF01FCFFFFFB799F501344D33F94
:10417000B3C8608B288AC63F0000F03F0000F83FBC
:1041800061436F63A787D23F71A379094F930A40B8
:104190000000E03F1655B5BBB16B0240EF39FAFEA7
:1041A000422EE63F00002C40000024400000184052
:1041B000FF0300002D431CEBE2361A3F80842E41A2
:1041C000099B0022013B09932000164B2900FFF7B1
:1041D00072FA0A00010003000A910B9294E700238F
:1041E00000240A930B9400230993249A099B9A4272
:1041F00014DDD31A013B24938023269ADB001A4353
:1042000000230025269209932DE68022120694466B
:10421000229B1E00239B63441F0006E60023249379
:10422000EAE7C04600002440F0B54546DE464E466B
:104230005746E0B595B08B46904699461E9A1F9B0F
:104240000A9019001000209DFFF7A1FA002800D065
:10425000B0E11E981F990122C74B5242FFF784FA22
:10426000002800D037E11E981F990122C34B52420B
:10427000FFF788FA002800D0A7E01E981F990022B7
:10428000BF4BFFF77FFA002800D088E01E981F99E7
:104290000022BC4BFFF768FA002800D07FE01E9890
:1042A0001F9900220023FFF75FFA002800D0FAE0F0
:1042B00000230B938023229C229ADB001C401A428D
:1042C00000D102E1092D00D87CE106A98C462C0022
:1042D000172200233021093C62440133D154EF1AE4
:1042E000202B00D132E1A342F7D10022A44B069249
:1042F00007931E981F99FFF773FA0500FFF758FA06
:1043000002000B001E981F99FFF7CBF9069A079B36
:10431000FFF7EBF908900991FFF786FA0600FFF71F
:1043200043FA02000B0008980999FFF7BAF9002236
:10433000954B08900991FFF725FA002800D1D2E0AB
:1043400001363000FFF730FA069A079BFFF712FAA2
:10435000002801D000260135AA46002F00D098E0A1
:104360002800FFF725FA02000B001E981F99FFF79F
:1043700098F9854B002206000F00FFF7F5F90CAB0A
:104380009A46002845D10022300039007E4BFFF7C5
:10439000F9F900283DD1EB073BD5013539E0229BE7
:1043A00042460493219B594603930A981E9B1F9CE7
:1043B0000295009301944B46FFF704FD15B0F0BC45
:1043C000BB46B246A946A046F0BD229B5B0767D418
:1043D00003226E4B2299019203912199029100933D
:1043E00042464B4659460A98FFF75EFBE6E706AAA7
:1043F00094461723280063440A2101341E19FEF74E
:10440000EDFE3031280031700A21FEF7E7FE051E6F
:1044100076D0202CEBD10323229A1340012B1DD1FF
:10442000219B002B1AD00B9B002B00D0BBE0229AC3
:104430000C33134200D0B6E0219BA34200D887E0A2
:1044400006AB9C4617223023624404E021990134D4
:1044500013558C4259D0202CF8D12024229B019452
:104460000393219B02935346B9E706AA9446172368
:104470000A216344300001341D19FEF7D7FE3031A4
:10448000297030000A21013FFEF7D0FE092E46D9DF
:104490000600202CE9D155460CAB20249A46B8E7FB
:1044A00004223B4B96E71E9A1F9B00200021FFF73A
:1044B000F8F801230B938023229C229ADB001E90A4
:1044C0001F911C401A4200D0FCE60022314B062707
:1044D000069207930DE7229B0393219B02930423EB
:1044E00001932D4B7BE7002208980999264BFFF793
:1044F0003BF9002800D02FE7002E4FD101362BE7E3
:104500000323229A1340012B66D0202CA6D00B9BAC
:10451000002B1FD02D235246135501349EE75546DC
:10452000202CB9D030233A19002F08D0172006A923
:10453000013409180B55202CAED09442F6D10CABA7
:104540009A462E2352461355013462E72024CCE6C6
:10455000202C83D0229B5B0708D4229B1B0700D40E
:104560007CE7202352461355013477E72B2352462C
:104570001355013472E7C046FFFFEFFFFFFFEF7FE7
:1045800065CDCD4165CDCDC10000E03FD08D01109E
:10459000C88D011080842E41D88D0110F30700D4FE
:1045A000DAE60136D8E6219B013B2193A34200D9EC
:1045B00046E7AAE7229B0393219B029303230193DF
:1045C000074B0CE7074BEA009B185C681B682F0041
:1045D0000693079400248CE6219B002B95D022E7BC
:1045E000D48D0110F8AD0110F0B55746DE464E46A9
:1045F0004546E0B5A5B01F002E9B91460D93CA4AD3
:10460000CA4B82468B461A60002900D129E200235A
:1046100038789846002800D12BE2C54B44460C93CD
:10462000C44B55464E460E930AE0631C9846220042
:1046300033005946A84744463878002800D187E01F
:1046400001372528F1D108239A46043B9946023BBD
:104650009846013B00229C460B943878791C030055
:10466000203BDBB2102B03D80C9C9B00E3589F46E9
:104670000300303B0B9C0B92092B3AD90023984640
:104680002A2800D1DDE000239A462E284BD00300D3
:10469000683BDBB2122B1ED80E9A9B00D3589F4664
:1046A00063460F001A43D8E743460F001A43D4E786
:1046B0004B460F001A43D0E710230F001A43CCE7F4
:1046C00053460F001A43C8E780235B000B9A7878A3
:1046D0001A430B9201310F0067284FD82428A4D920
:1046E0000300253BDBB2422B9FD893499B00CB585C
:1046F0009F46002398460B9B47469C4600E00131AD
:10470000BB00DB195B001F180878303F0300303B0B
:10471000092BF4D963460B930023B8469A460F0041
:1047200001312E28B3D180200B9AC00002430B9296
:1047300030225242944678780B0084446246092A1B
:1047400000D8AAE12A2800D1B9E10F0001319EE783
:10475000A046AA46B146C84503D301235B424B4459
:1047600098464B46424659460020D047200025B087
:10477000F0BCBB46B246A946A046F0BD010069396F
:10478000C9B20F2900D950E701238B409C466B4BDF
:10479000994663464A4613400F9362464B461A4277
:1047A00000D068E10A2956D0072900D03DE70D9BCB
:1047B00002CB9846002900D092E10B9B10211A00F1
:1047C0008A43100011310843814680201A00C0003E
:1047D0000240110003421CD114AB9C461F220F2340
:1047E00062440D959C4615000F9B0B9402E0202B14
:1047F0000CD0110064460C4020003730092C00D842
:1048000007380133E8540A090F29F0D80B9C0D9D95
:104810000F934B46082206935346059208320392A3
:10482000002204930F9B029201931CAB2200009381
:10483000594633002800FFF78DF9434604000D93D5
:10484000FAE60D9B04CB9046002A79DB78780D932D
:104850000F00013117E70D9B02CB14930B789C4698
:1048600018005346002B00D134E1002815D05346E0
:10487000013B013399460D940B9C89444A460B0039
:10488000A14601E0934203D05C780133002CF9D1BA
:104890004A465B1A0D9C0B920F938023DB009946CE
:1048A0000B9A13400D934B461A4204D00F9B53456D
:1048B00001D953460F93022399460B9A13400B9349
:1048C0004B46134200D1F5E16346002B00D1D6E1FF
:1048D0000D9B002B00D182E10B1BD14631009A4683
:1048E0003B00A1442E005F464D4622009B46894670
:1048F00009E04B463900541CB0475346185D002868
:1049000000D192E122009542F3D14B465A46A94686
:10491000BB46350017001E004C460B9B002B00D0F9
:10492000ADE1149B0D9387E6E945001000390020A6
:1049300058AC01109CAC0110E8AC01104190000093
:104940000B9A283802430B9242465242787890469E
:104950000F000D93013196E678786C2800D15DE167
:1049600080230B9A5B001A430B920131B3E680233C
:104970009B00ABE67878682800D148E180230B9A49
:1049800001311A430B92A6E6672800D1B2E047280E
:1049900000D11AE1452800D11CE10B9A07210492AD
:1049A00042460D9B0392073352468B4319000292F5
:1049B0000CC92800009201930D9122003300594642
:1049C000FFF700FA040037E6462800D18DE00B9A85
:1049D0000721049242460D9B0392073352468B43B4
:1049E000190002920CC92800009201930D91220037
:1049F00033005946FFF718FC04001DE6631C984677
:104A00002200330059462520A847444614E60D9B52
:104A100004330F93631C99460B9B9A0700D40AE159
:104A20000D9B2200187859463300A847434644445A
:104A3000012B00D86FE1B0462E0025004C46B94648
:104A40005F4622004346013439002020B047AC4283
:104A5000F7D12C00BB4635004F4646460F9B0D93C1
:104A6000EAE5D64B38789A4600239846002800D0CD
:104A7000D3E500246FE66F2842D000D8FDE1102373
:104A8000782800D19BE00B9A9A430B920A239C460C
:104A9000002314930A330F9338E057460B9AB9005A
:104AA000C919490001330F181878303F0100303917
:104AB0000929F4D9BA460B921F00591CE7E50D9B52
:104AC000B87804CB0237D143C9170A4092460D93F8
:104AD000791CDCE5002800D1DFE602235B42C8E652
:104AE00021200B9A0243914676E620230B9A1A4323
:104AF0000B926CE780230B9A1B011A430B924CE735
:104B000008239C460023149308330F930B988023AB
:104B10000200DB001A4011000200184200D080E0C1
:104B20000C239A431000802302009B001A400B9232
:104B3000184200D0F1E0802302005B001A40914649
:104B40000D9A04321492184200D0C3E2430600D5F5
:104B5000D7E0030600D421E30D9B1B880993002BAB
:104B600000D02DE110339843002900D128E1002323
:104B7000994643460593534604930F9B069003932F
:104B8000002302934B4601931CAB2200009359462D
:104B900033002800FEF7DEFF0400C2E6582809D0E3
:104BA000622800D0E3E202239C46002314930233E0
:104BB0000F93ABE720230B9A1A430B92103B9C46B2
:104BC0000023149310330F93A0E780230B9A1B014B
:104BD0001A430B9220230B9A1A430B92DDE60B1B10
:104BE0009A460F9B99463B0037005E469B46220043
:104BF0003B003100A84753460134185D0028F6D128
:104C00004B460F935B46B3463E001F0085E6C0232C
:104C10000B9AB8781A430B92F91C5CE5C0239B00F1
:104C2000F6E70D239A4310007DE75B463500BB464F
:104C30004E461F0071E64346012B66D9631E43446E
:104C400032002E001D003B00A2465F4691469B4667
:104C500022004B46013439002020B047AC42F7D146
:104C60005B463500BB464E46A14654461F000D9B91
:104C70004A461878594633004444A847EEE60F9B4D
:104C8000A146984500D84CE64444E41AB0462E00AC
:104C900025004C46B9465F462200434601343900A0
:104CA0002020B047AC42F7D12C00BB4635004F4620
:104CB000464636E60F98804500D873E24346E21830
:104CC000131A32002E001D003B0091465F469B46A2
:104CD0000F9122004B46013439002020B047AC42EE
:104CE000F7D15B46BB461F0043460F9901330F9334
:104CF0000B7835009C464E466046002800D0E7E51C
:104D00000FE60D9B1B78099329E70D9B220018786D
:104D100059463300A8474C46A0E60D9AFA3BFF3BA4
:104D200007329A430133994691444B460D931368D9
:104D3000526815921A4306D110329043002209920C
:104D4000002900D083E06122810600D54122D2B241
:104D50000A9214AA91460A9A00210A3A0B924246F4
:104D60001792524618925A46B24609911E001F31B8
:104D7000149B4944BB4616941A95002467469846EE
:104D80008946159D19901B920AE03032D2B24B46EB
:104D900001341A55A8454CD0202C4CD006000D00EB
:104DA0003A00002330002900FEF77EFAD2B2092A29
:104DB000EBD90B9B9C466244D2B2E8E7A53A0010BF
:104DC0006123820600D54123DBB20A3B0B934346A5
:104DD00014A91F228C46159353466244B2460D9483
:104DE00017974C468046A9461700099D0F9E1693BB
:104DF00008E03033DBB201343B55B5420ED3202CF2
:104E00000CD0050031002800FEF710FACBB20929BA
:104E1000EFD90B9A94466344DBB2ECE7159B40460E
:104E20009846169B4D465646A1469A460D9C179F9E
:104E30009FE6B742B0D9179B56469846189B5F46E7
:104E40009A461B9B09949B46169C19981A9D4346AB
:104E50000593534604930F9B0690039300230293FC
:104E6000099B01931CAB2200009359463300280094
:104E7000FEF770FE0400FFF7DFFB10230B9A9A4346
:104E80000F92692800D091E10B9980230A00DB0082
:104E90001A4010000A00194203D0112118008A4359
:104EA0000F920F9A802311009B0019408C461A42E2
:104EB0005BD1802311005B00194089460D990431B4
:104EC0000B911A4200D0B2E013005B0600D4EDE073
:104ED0000D9B1B781A00D90F0D91002B00D1A3E078
:104EE000100014AA944642461F231592524663446A
:104EF000A846BA464D461494B14604001F001692C7
:104F000001E0202D0FD020000A21FEF78FF9013596
:104F10007E193031317020000A21FEF787F9260012
:104F20000400092EEDD8159B4E46A94645469846E5
:104F3000169B57469A46149C0F9B0693434605932F
:104F4000534604930A2303930D9B02934B4601930C
:104F50001CAB22000093594633002800FEF7FAFDEF
:104F60000B9B04000D93FFF767FB07220D9B073394
:104F70009343013294469C4462460D920CCBD90F68
:104F80000B911100194300D19BE0D9171391129195
:104F90005140109113995940119110981199129AFA
:104FA000139B801A99411090119114AA944642467D
:104FB0000023159252469946169232001F336344DD
:104FC000A8464E46BA4614941F00109C119D914667
:104FD00001E0202E10D0200029000A220023FEF735
:104FE00063F9013630322B00BA550D00220004005F
:104FF000002BEED1092AECD8159B1094119545464B
:1050000098464B46169AB14657461E009246149C47
:105010000F9B069343460593534604930A23039339
:105020000B9B02934B461CE7002885D159E70D9B4B
:105030001B68DA0F1100002B00D1A6E0DA179818D0
:10504000504014AA91461F2342464B44A8460D9453
:10505000169704006546B1461F001491159201E0B1
:10506000202D0FD020000A21FEF7E0F801357E192F
:105070003031317020000A21FEF7D8F826000400F4
:10508000092EEDD8159BAC4645469846149B4E46D6
:1050900019000D9C169F0F9B0291069343460593A2
:1050A000534604930A230393634650E713001B06F9
:1050B0006ED50D9B00229B5ED9175A184A4092B2BA
:1050C00009E7002399460028A2D10022002310926C
:1050D00011936AE70D9B1B689946002B03D110338F
:1050E0009843002938D16123820600D54123DBB2E1
:1050F0000A3B0D9343461693534614A91F228C4630
:1051000017932B0062444D46B2461594189780467B
:10511000170099460B9C0F9E08E03033DBB2013438
:105120003B55B5420ED3202C0CD005003100280091
:10513000FEF77CF8CBB20929EFD90D9A9446634467
:10514000DBB2ECE7169B40469846179B56464D4609
:105150009A460B94189F159C434605935346049317
:105160000F9B06900393002302930B9B0BE50B9977
:1051700080230A00DB001A4010000A00194200D008
:105180008BE610239A430F928BE6002883D158E7D1
:105190000D9B1B68D9175A184A409CE60D9B1B684B
:1051A0000993DCE4030001330F93A5E50B926DE452
:1051B0000EB4012230B584B007AC08CC064D010016
:1051C0000094280052420394FFF70EFA04B030BC5A
:1051D00008BC03B01847C0469D3A00100CB430B567
:1051E00085B008AC08CC064D0A00009401002800E8
:1051F0000394FFF7F9F905B030BC08BC02B01847BA
:105200009D3A001000B585B00391012102900093F2
:10521000034813004A4202A9FFF7E6F905B000BDB2
:10522000B53D001010B5094A0300146884B0002C85
:1052300008D0012200910648524203A9A04701204C
:1052400004B010BD00F0A8F90020F9E700390020F3
:10525000A53D001000BEFDE7094A030010680028C4
:1052600005D00849C3188B4207D813607047064819
:105270000449C31810608B42F7D901204042F5E77A
:10528000D43400200000042090E4002010B5FFF783
:10529000E1FFC04670B5FDF7C3FE074D074EB542AE
:1052A00009D20024013E761BB60808CD984723009A
:1052B0000134B342F9D170BDBC870110C48701101D
:1052C000030010B5080011001B68984710BDC046C8
:1052D000F0B5C64600B5437D07000D001600002B53
:1052E00038D0002A2EDD00216A1E90466A5C037DBC
:1052F0004C1C00200A2A0CD0A64216D043461B5D47
:1053000021000D3B5A4253416A5CDBB24C1C0A2A15
:10531000F2D1002BF0D1884217DB022110483B6804
:105320009847A64207D02000E8E7864203DD311AFD
:105330003B6828189847AD19013D2B780D3B5A4220
:1053400053413B7580BCB846F0BD091A3B6828182C
:105350009847E2E70368110028009847F2E7C04643
:1053600048AE0110F0B5C6460B6806000C0000B54B
:10537000802B06D05A1C2260E418267180BCB846E7
:10538000F0BD0F4B1D68002D16D00B1D98460D4F1C
:1053900002E02D69002D0FD02B68002BF9D03B685F
:1053A000002B01D0AB42F4D1280041462268FFF720
:1053B0008FFF2D69002DEFD101220023DBE7C046CE
:1053C000C4340020D0340020F0B5DE4657464E46A7
:1053D0004546E0B585B017001C0006000D00FDF73E
:1053E00007FC0023314A12184B41802109068B42E9
:1053F00002D301222E4B52422E4908008A4613F056
:105400008FF901906B1C03D1300012F0E1FB050015
:10541000002C26D0284B9846284B1C68002C15D011
:10542000002F21D1264F02E02469002C0ED02368E2
:10543000002BF9D03B68002B01D09C42F4D1200016
:105440002A003100C0472469002CF0D1019B002BB9
:1054500028D1280005B0F0BCBB46B246A946A046FC
:10546000F0BD184B9846D7E7154B994602ABDF1DA8
:105470000A239B4602E02469002CE7D02368002B16
:10548000F9D04B461B68002B01D0A342F3D12A0070
:1054900031002000C0475B460122390020003B70EC
:1054A000C047E8E7504613F0F3F8D2E740420F0058
:1054B000FFFFFF7FE0170020D1520010C43400200E
:1054C000D0340020C15200100A4A1368002B05D1C5
:1054D0000CE01A001B691032002B07D09842F8D15B
:1054E000002902D103691360016170470029FCD0D3
:1054F0001060FAE7C434002010B500F003FB10BDC3
:10550000F0B5CE46474680B583B06B460600DD1D3C
:105510002870FDF76DFB00231A4A12184B418021B9
:1055200009068B4202D30122174B52421749080049
:10553000884613F0F5F8164B81461C68002C14D0F1
:10554000144F02E02469002C0FD02368002BF9D0FF
:105550003B68002B01D09C42F4D12000012229009D
:10556000FFF7B6FE2469002CEFD14B46002B05D186
:10557000300003B0C0BCB946B046F0BD404613F0A1
:1055800087F8F5E740420F00FFFFFF7FE01700209C
:10559000C4340020D034002070B5040012F018FB91
:1055A00001230100050001222000FFF70DFF084B39
:1055B0001C68002C06D06368002B05D0984724692E
:1055C000002CF8D1280070BD2469002CF3D1F9E734
:1055D000C4340020F0B5CE46474680B5A3B00400E1
:1055E0000D00FDF705FB0023294A12184B418021CD
:1055F00009068B4202D30122264B5242264F380025
:1056000013F08EF800230600019322002B0023489C
:1056100001A9FFF7F7FD019B8046002B14D1204B19
:105620001C68002C06D06368002B0BD098472469B7
:10563000002CF8D1002E25D1404623B0C0BCB9467D
:10564000B046F0BD2469ECE7154B1D689946002D66
:105650001CD0144C02E02D69002D0FD02B68002BBC
:10566000F9D02368002B01D0AB42F4D12800019A75
:1056700002A9FFF72DFE2D69002DEFD14B460195B4
:105680001C68CEE7380013F003F8D5E70195D1E7A1
:1056900040420F00FFFFFF7FE0170020655300101E
:1056A000C4340020D03400200FB400B583B004A966
:1056B00001C90191FFF78EFF03B008BC04B0184781
:1056C0007047C0460022014B1A70704780E40020EA
:1056D0004B790020FF2B0BD18B79002B08D1CB7994
:1056E000012B05D1082A03D9024B8A7809301A7098
:1056F0007047C04680E400200120704710B50129A2
:1057000001D0012010BD13495379107909781B028B
:10571000034300209942F5D15378012B08D0022B86
:10572000F0D1002064220021FDF7C2FB0120E9E74F
:10573000D37891781B021943DB0507D54A0A10007C
:1057400001231A407E331940FDF73AFC01204A0A32
:105750004042F5E780E400200048704714AF011094
:1057600070B5050014000120012909D153780020EB
:10577000012B05D1637912791B021343072B00D04B
:1057800070BD21002800024A9F3301F051FAF7E76B
:105790006CAE011001230370004870474CAE01103D
:1057A0004B780A781B0213438A7810B512041A4307
:1057B000CB781B0613439622D200934200D010BD33
:1057C0000022012011004042FDF7FAFB024B186055
:1057D000024B19607047C046DC250020E025002000
:1057E00010B5024B1878FCF7EFF910BD81E40020EA
:1057F000154B70B51A68002A22D0EFF3108172B6EB
:1058000010680028FCD0BFF35F8F00200F4A59605A
:1058100010701B68BFF35F8F186081F3108800243D
:1058200000250B4E3078FCF7C3F9002804D1002482
:1058300000252900200070BD3078FCF7C5F9F8E795
:10584000FA240025A400ECE714D3002083E4002010
:1058500081E4002070B5040000200E0001F000FB80
:10586000002836D0002001F013FB002831D0FDF7CE
:10587000BFF90023184A12184B41802109068B42B8
:1058800016D2164D280012F04BFF002821D0002020
:1058900001F0E6FA00280FD101200021404200F07B
:1058A000FBFC03246442280012F0F2FE200070BDCD
:1058B00001220B4B5242E4E7002001F0E9FA0028F4
:1058C000EAD021003200002001F0EEFA041EEAD1F5
:1058D000E7E703246442E9E740420F0018E40020B0
:1058E000FFFFFF7F10B5FDF783F900230E4A121862
:1058F0004B41802109068B4202D301220B4B5242BD
:105900000B4C200012F00CFF00280CD001200021CD
:10591000404200F0C1FC002001F012FB0028F5D14C
:10592000200012F0B5FE10BD40420F00FFFFFF7FC8
:1059300018E40020F8B5DE46574680B505000C0097
:10594000FDF756F90023374A12184B41802109060A
:105950008B4202D30122344B5242344908008A461A
:1059600012F0DEFE002803D1C0BCBB46B246F8BD33
:10597000002001F075FA00284AD00026002C43DDF3
:105980002B4B9B4614E0A919002001F015FB0700E2
:1059900001200021404200F07FFC002001F0D0FAFD
:1059A000FDF726F9224BF61918605960B4422BDD39
:1059B000002001F021FBA71B0200B84200DD3A00E5
:1059C000002AE0D101200021404200F065FC0020C7
:1059D00001F0B6FA002001F043FA002814D00020AC
:1059E00001F00AFB0028E1D1FDF702F95B460F0048
:1059F0001A685B68002184460E4812184B419F428A
:105A000002D8D3D19445D1D9504612F041FEABE72C
:105A100000200021064B18605960504612F038FEF5
:105A2000A2E7C04640420F00FFFFFF7F18E40020BE
:105A3000B019002020A1070030B52B4C85B0002103
:105A4000200012F05DFE00281CD1284B1A68002AA5
:105A500016D0EFF3108172B610680028FCD0BFF3A7
:105A60005F8F01242248596002781B68D2B204700B
:105A7000BFF35F8F0020186081F31088002A17D0D1
:105A800005B030BD01200021404200F005FC00209F
:105A900001F0FEF90500200012F0FAFD002DEFD014
:105AA000144B1B68002BEBD0134A10689847E7E7AC
:105AB000FCF7BCFD0400FDF79BF8FA2200239200DE
:105AC00012184B41802109068B4202D301220B4B55
:105AD00052420121029100210191094920000091C7
